:100000000C9452010C947A010C947A010C947A01AC
:100010000C947A010C947A010C947A010C947A0174
:100020000C947A010C947A010C947A010C947A0164
:100030000C947A010C947A010C947A010C947A0154
:100040000C94BF050C947A010C942F060C940906AD
:100050000C947A010C947A010C947A010C947A0134
:100060000C947A010C947A01000000000000005FFB
:1000700000000007000700147F147F14242A7F2A41
:10008000122313086462364955225000050300000C
:10009000001C2241000041221C0014083E081408E4
:1000A000083E0808005030000008080808080060F2
:1000B00060000020100804023E5149453E00427F86
:1000C000400042615149462141454B311814127F8D
:1000D0001027454545393C4A494930017109050316
:1000E0003649494936064949291E0036360000007E
:1000F0005636000008142241001414141414004150
:100100002214080201510906324979413E7E11113B
:10011000117E7F494949363E414141227F4141227A
:100120001C7F494949417F090909013E4149497AF2
:100130007F0808087F00417F41002040413F017F48
:10014000081422417F404040407F020C027F7F0420
:1001500008107F3E4141413E7F090909063E415159
:10016000215E7F09192946464949493101017F012C
:10017000013F4040403F1F2040201F3F4038403F4C
:100180006314081463070870080761514945430068
:100190007F41410002040810200041417F00040219
:1001A0000102044040404040000102040020545439
:1001B00054787F48444438384444442038444448C0
:1001C0007F3854545418087E0901020C5252523E92
:1001D0007F0804047800447D40002040443D007FB7
:1001E0001028440000417F40007C041804787C08FB
:1001F00004047838444444387C1414140808141453
:10020000187C7C080404084854545420043F44409B
:10021000203C4040207C1C2040201C3C4030403C86
:1002200044281028440C5050503C4464544C440022
:100230000836410000007F00000041360800100829
:100240000810080000000000000000002400270043
:100250002A0000000000250028002B0000000000FC
:1002600023002600290004040404040404040202F8
:100270000202020203030303030301020408102025
:100280004080010204081020010204081020000030
:100290000008000201000003040700000000000045
:1002A0000000610611241FBECFEFD8E0DEBFCDBF36
:1002B00011E0A0E0B1E0E6EAFAE102C005900D929B
:1002C000A434B107D9F722E0A4E4B1E001C01D9243
:1002D000A335B207E1F711E0C2E5D1E004C02197F0
:1002E000FE010E944B0DC135D107C9F70E94A1063E
:1002F0000C94510D0C940000833081F028F481306F
:1003000099F08230A9F008958730A9F08830C9F0BB
:100310008430B1F4809180008F7D03C08091800093
:100320008F7780938000089584B58F7784BD08957A
:1003300084B58F7DFBCF8091B0008F778093B00024
:1003400008958091B0008F7DF9CFCF93DF93282F50
:1003500030E0F901E257FD4F8491F901E658FD4F75
:10036000D491F901EA59FD4FC491CC23A1F0811138
:100370000E947C01EC2FF0E0EE0FFF1FE45AFD4FCE
:10038000A591B491EC91ED2381E090E009F480E037
:10039000DF91CF91089580E090E0FACF1F93CF9343
:1003A000DF93282F30E0F901E257FD4F8491F901E6
:1003B000E658FD4FD491F901EA59FD4FC491CC2381
:1003C000A9F0162F81110E947C01EC2FF0E0EE0FB6
:1003D000FF1FEE5AFD4FA591B4918FB7F894EC91A1
:1003E000111108C0D095DE23DC938FBFDF91CF9130
:1003F0001F910895DE2BF8CFCF93DF9390E0FC019F
:10040000E658FD4F24918A599D4FFC018491882321
:10041000D1F090E0880F991FFC01E85BFD4FA5919A
:10042000B491FC01EE5AFD4FC591D49161110EC0FB
:100430009FB7F8948C91E22FE0958E238C932881BE
:10044000E223E8839FBFDF91CF9108958FB7F8949F
:10045000EC91E22BEC938FBFF6CF8E5080648093AB
:100460007C0080917A00806480937A0080917A0089
:1004700086FDFCCF809178009091790008953FB778
:10048000F8948091630190916401A0916501B0910D
:10049000660126B5A89B05C02F3F19F00196A11D46
:1004A000B11D3FBFBA2FA92F982F8827BC01CD01BE
:1004B000620F711D811D911D42E0660F771F881F1D
:1004C000991F4A95D1F708958F929F92AF92BF924C
:1004D000CF92DF92EF92FF924B015C010E943F02AC
:1004E0006B017C010E943F026C197D098E099F09F6
:1004F000683E734081059105A8F321E0821A9108B6
:10050000A108B10888EEC80E83E0D81EE11CF11CDA
:1005100081149104A104B10429F7FF90EF90DF90BA
:10052000CF90BF90AF909F908F900895AF92BF9261
:10053000CF92DF92EF92FF920F931F93CF93DF93AF
:100540006C017B018B01040F151FEB015E01AE18DE
:10055000BF08C017D10759F06991D601ED91FC9100
:100560000190F081E02DC6010995892B79F7C5012D
:10057000DF91CF911F910F91FF90EF90DF90CF907F
:10058000BF90AF900895FC01538D448D252F30E02E
:10059000842F90E0821B930B541710F0CF96089590
:1005A00001970895FC01918D828D981761F0A28DBD
:1005B000AE0FBF2FB11D5D968C91928D9F5F9F7383
:1005C000928F90E008958FEF9FEF0895FC01918D39
:1005D000828D981731F0828DE80FF11D858D90E0A6
:1005E00008958FEF9FEF0895FC01918D228D892F43
:1005F00090E0805C9F4F821B91098F73992708952B
:1006000087E691E00E94F40221E0892B09F420E0C2
:10061000822F089580E090E0892B29F00E9400034A
:1006200081110C9400000895FC01A48DA80FB92F2E
:10063000B11DA35ABF4F2C91848D90E001968F730A
:100640009927848FA689B7892C93A089B1898C9129
:10065000837080648C93938D848D981306C0028878
:10066000F389E02D80818F7D80830895EF92FF9242
:100670000F931F93CF93DF93EC0181E0888F9B8DC5
:100680008C8D98131AC0E889F989808185FF15C07F
:100690009FB7F894EE89FF896083E889F9898081A2
:1006A0008370806480839FBF81E090E0DF91CF9171
:1006B0001F910F91FF90EF900895F62E0B8D10E093
:1006C0000F5F1F4F0F731127E02E8C8D8E110CC002
:1006D0000FB607FCFACFE889F989808185FFF5CF4D
:1006E000CE010E941403F1CFEB8DEC0FFD2FF11D15
:1006F000E35AFF4FF0829FB7F8940B8FEA89FB898A
:1007000080818062CFCFCF93DF93EC01888D8823E7
:10071000B9F0AA89BB89E889F9898C9185FD03C064
:10072000808186FD0DC00FB607FCF7CF8C9185FF49
:10073000F2CF808185FFEDCFCE010E941403E9CF77
:10074000DF91CF910895089590E080E00895FC0135
:1007500001900020E9F73197AF01481B590BBC010C
:1007600084E092E00C9496028F929F92AF92BF9297
:100770000F931F93CF93DF93CDB7DEB7A1970FB63B
:10078000F894DEBF0FBECDBF19A2423008F44AE094
:100790008E010F5D1F4F842E912CB12CA12CA50131
:1007A00094010E94150DE62FB901CA01EA30F4F454
:1007B000E05DD801EE938D01232B242B252B79F7B7
:1007C00090E080E0109719F0CD010E94A703A19658
:1007D0000FB6F894DEBF0FBECDBFDF91CF911F9152
:1007E0000F91BF90AF909F908F900895E95CE1CFFB
:1007F000EF92FF920F931F93CF93DF93EC01042F9F
:100800008E810E94CE0160E088850E94CE01FC802E
:10081000ED8018E0602F661F6627661F8E2D0E94F0
:10082000CE01000F61E08F2D0E94CE0160E08F2D80
:100830000E94CE01115071F761E08885DF91CF9160
:100840001F910F91FF90EF900C94CE01CF93DF9307
:10085000C4E0D2E01C8690E06B8529E3629F612DA5
:100860001124669570E06F5F7F4F0E94010D8D87A8
:1008700040E860E0CE010E94F8034D85406460E0EE
:10088000CE01DF91CF910C94F803CF93DF9380E0FA
:100890000E942604D0E0C0E080910F0286958695E4
:1008A000869590910E02899FC0011124C817D9071F
:1008B00040F440E061E084E092E00E94F803219679
:1008C000EBCF80E0DF91CF910C942604CF92DF92A2
:1008D000EF92FF920F931F93CF93DF9300D000D03E
:1008E0001F92CDB7DEB767FD6BC07C01862F90E00D
:1008F000603208F455C0809725E0289FB001299FF9
:10090000700D112468597F4F45E050E0CE010196EB
:100910000E94BC0A8E010F5F1F4F680185E0C80E60
:10092000D11CF80141918F01F70186858111409515
:1009300061E0C7010E94F8030C151D0591F7F7014E
:100940004685419561E0C7010E94F803F70184855F
:1009500090E00696628570E00E94010D8487892BE5
:1009600079F4858590E00196638529E3629F612D86
:100970001124669570E06F5F7F4F0E94010D85879F
:1009800081E090E00F900F900F900F900F90DF910B
:10099000CF911F910F91FF90EF90DF90CF9008952E
:1009A000880F991FF701E80FF91F078510890115B6
:1009B000110509F0B2CF45E050E068E670E0A6CF3F
:1009C00090E080E0DFCF4F925F926F927F928F92A4
:1009D0009F92AF92BF92CF92DF92EF92FF920F93CE
:1009E0001F93CF936B017C01742EAC019B010E947D
:1009F000FC0C882399F083E291E0CF911F910F9135
:100A0000FF90EF90DF90CF90BF90AF909F908F902E
:100A10007F906F905F904F900C94A7034601570111
:100A2000E894B7F82FEF3FEF4FE75FE7C501B40158
:100A30000E94FC0C81110DC02FEF3FEF4FE75FE7E5
:100A4000C501B4010E94320B18161CF487E291E034
:100A5000D4CF2FEF3FEF4FE75FE4C701B6010E940D
:100A60008A0C18161CF48BE291E0C7CF2FEF3FEFF2
:100A70004FE75FECC701B6010E94320B87FDF3CF51
:100A800020E030E0A901C701B6010E94320B10E05E
:100A900000E087FF0AC06DE284E092E00E946604F5
:100AA0008C01F7FAF094F7F8F094C0E060E070E0A1
:100AB00080E09FE37C1641F020E030E040E251E42A
:100AC0000E94370BCF5FF6CFA70196010E94C60A9E
:100AD0002B013C010E94A90B4B015C014AE00E94E2
:100AE000B4037C01E00EF11ECC23C1F1C501B401B9
:100AF0000E94D80B9B01AC01C301B2010E94C50A40
:100B00004B015C016EE284E092E00E946604E80E14
:100B1000F91EC15018F120E030E040E251E4C50177
:100B2000B4010E948F0C2B013C010E94A90B4B01C8
:100B3000B12CA12C4AE0C501B4010E94B403E80E17
:100B4000F91EC501B4010E94D80B9B01AC01C30181
:100B5000B2010E94C50A4B015C01DBCFC701CF91F6
:100B60001F910F91FF90EF90DF90CF90BF90AF90CB
:100B70009F908F907F906F905F904F9008951F92FD
:100B80000F920FB60F9211242F933F938F939F9341
:100B9000AF93BF9380915F0190916001A09161013B
:100BA000B091620130915E0123E0230F2D3758F59B
:100BB0000196A11DB11D20935E0180935F0190936A
:100BC0006001A0936101B0936201809163019091F3
:100BD0006401A0916501B09166010196A11DB11D4E
:100BE0008093630190936401A0936501B0936601C3
:100BF000BF91AF919F918F913F912F910F900FBE19
:100C00000F901F90189526E8230F0296A11DB11D85
:100C1000D2CF1F920F920FB60F9211242F933F93B2
:100C20004F935F936F937F938F939F93AF93BF93F4
:100C3000EF93FF9387E691E00E941403FF91EF91F9
:100C4000BF91AF919F918F917F916F915F914F91E4
:100C50003F912F910F900FBE0F901F9018951F92EC
:100C60000F920FB60F9211242F938F939F93EF93B0
:100C7000FF93E0917701F09178018081E0917D010F
:100C8000F0917E0182FD1BC09081809180018F5F79
:100C90008F7320918101821741F0E0918001F0E093
:100CA000E959FE4F958F80938001FF91EF919F91BD
:100CB0008F912F910F900FBE0F901F9018958081EC
:100CC000F4CFE7E6F1E01382128288EE93E0A0E031
:100CD000B0E084839583A683B78389E091E0918314
:100CE000808385EC90E09587848784EC90E09787FB
:100CF000868780EC90E0918B808B81EC90E0938BE9
:100D0000828B82EC90E0958B848B86EC90E0978BC5
:100D1000868B118E128E138E148EE4E0F2E0138215
:100D200012828BE191E09183808383E0848384E06D
:100D3000858385E0868386E0878387E080871686C3
:100D40000895789484B5826084BD84B5816084BD43
:100D500085B5826085BD85B5816085BD80916E0059
:100D6000816080936E00109281008091810082608A
:100D700080938100809181008160809381008091C7
:100D800080008160809380008091B10084608093B6
:100D9000B1008091B00081608093B00080917A00B2
:100DA000846080937A0080917A00826080937A00D8
:100DB00080917A00816080937A0080917A008068C7
:100DC00080937A001092C100E0917701F091780150
:100DD00082E08083E0917301F09174011082E091D0
:100DE0007501F09176018FEC808310927F01E09184
:100DF0007B01F0917C0186E08083E0917901F091A4
:100E00007A01808180618083E0917901F0917A019B
:100E1000808188608083E0917901F0917A018081FE
:100E200080688083E0917901F0917A0180818F7DE3
:100E3000808384E580930E0280E380930F021092FA
:100E40000D021092100210921102E3E1F2E080E430
:100E5000DF011D928A95E9F761E0809108020E9406
:100E6000FC0161E0809109020E94FC0161E0809137
:100E70000A020E94FC0161E080910B020E94FC01C9
:100E800061E080910C020E94FC0161E080910B0204
:100E90000E94CE0161E080910C020E94CE0160E0D0
:100EA00080910B020E94CE0164E670E080E090E049
:100EB0000E94640261E080910B020E94CE0141E237
:100EC00060E084E092E00E94F80343E160E084E0A7
:100ED00092E00E94F80380910D0242EC813039F4D7
:100EE00040EE60E084E092E00E94F80345E060E0BC
:100EF00084E092E00E94F80340E260E084E092E047
:100F00000E94F80349E060E084E092E00E94F80368
:100F10000E94450448E060E084E092E00E94F8030B
:100F20004CE060E084E092E00E94F80364E670E048
:100F300080E090E00E94640240E860E084E092E09B
:100F40000E94F80340E460E084E092E00E94F8032D
:100F500080E091E090931602809315020E94450470
:100F600060E082E00E94FC0161E082E10E94FC01FD
:100F700061E083E10E94FC0160E088E00E94FC01E6
:100F800060E089E00E94FC0161E08AE00E94FC01CF
:100F900061E08BE00E94FC0161E08CE00E94FC01BA
:100FA00061E08DE00E94FC01C0E0D0E089E00E9499
:100FB000A501019709F0D6C18EE00E942D024C01D7
:100FC00090934D0180934C018FE00E942D025C01B3
:100FD00090934B0180934A0180E10E942D027C0195
:100FE000909349018093480181E10E942D028C0178
:100FF000909347018093460160E082E10E94CE0118
:1010000060E083E10E94CE0188E00E94A5016C01AE
:101010009093450180934401B401990C880B990B7E
:101020000E94DA0B2AE038E240EA5BE30E948F0C70
:1010300020E030E048EC52E40E948F0C23E333E3DD
:1010400043E35FE30E94C60A2B013C0140925A0130
:1010500050925B0160925C0170925D0160E08AE0F9
:101060000E94CE0120E030E040EA51E4C301B20129
:101070000E948A0C181624F461E08AE00E94CE01D6
:101080001C141D0464F477FA709477F870944092FD
:101090005A0150925B0160925C0170925D0161E0C7
:1010A00082E10E94CE0160E083E10E94CE0188E0EF
:1010B0000E94A5016C019093450180934401B50104
:1010C000BB0C880B990B0E94DA0B2AE038E240EA4D
:1010D0005BE30E948F0C20E030E048EC52E40E9479
:1010E0008F0C23E333E343E35FE30E94C60A4B0123
:1010F0005C018092560190925701A0925801B092E3
:10110000590160E08BE00E94CE0120E030E040EA2F
:1011100051E4C501B4010E948A0C181624F461E060
:101120008BE00E94CE011C141D0464F4B7FAB09445
:10113000B7F8B0948092560190925701A09258014E
:10114000B092590160E082E10E94CE0161E083E14A
:101150000E94CE0188E00E94A5015C0190934501A8
:1011600080934401B701FF0C880B990B0E94DA0BA6
:101170002AE038E240EA5BE30E948F0C20E030E096
:1011800048EC52E40E948F0C23E333E343E35FE334
:101190000E94C60A6B017C01C0925201D092530199
:1011A000E0925401F092550160E08CE00E94CE0183
:1011B00020E030E040EA51E4C701B6010E948A0C09
:1011C000181624F461E08CE00E94CE011A141B046E
:1011D00064F4F7FAF094F7F8F094C0925201D092C8
:1011E0005301E0925401F092550161E082E10E94C6
:1011F000CE0161E083E10E94CE0188E00E94A5015A
:101200005C019093450180934401B801110F880B54
:10121000990B0E94DA0B2AE038E240EA5BE30E9475
:101220008F0C20E030E048EC52E40E948F0C23E366
:1012300033E343E35FE30E94C60A6B017C01C09283
:101240004E01D0924F01E0925001F092510160E0C6
:101250008DE00E94CE0120E030E040EA51E4C70179
:10126000B6010E948A0C181624F461E08DE00E94F9
:10127000CE011A141B0464F4F7FAF094F7F8F09412
:10128000C0924E01D0924F01E0925001F092510174
:101290000E94450440E260E084E092E00E94F8038E
:1012A00080E00E9426048FE291E00E94A7036091F3
:1012B0005A0170915B0180915C0190915D0142E067
:1012C0000E94E30481E00E94260484E391E00E94EE
:1012D000A703609156017091570180915801909138
:1012E000590142E00E94E30482E00E94260489E35F
:1012F00091E00E94A7036091520170915301809187
:1013000054019091550142E00E94E30483E00E9461
:1013100026048EE391E00E94A70360914E01709134
:101320004F01809150019091510142E00E94E304ED
:1013300082E00E94A50164EF71E080E090E00E94ED
:10134000640268EE73E080E090E00E9464022097FF
:1013500009F42CCE0E940003882309F427CE0E94B2
:10136000000024CE8EE00E942D025C0190934D017E
:1013700080934C018FE00E942D026C0190934B01F1
:1013800080934A0180E10E942D027C0190934901E3
:101390008093480181E10E942D028C0190934701C6
:1013A00080934601B501BB0C880B990B0E94DA0BA8
:1013B0002AE038E240EA5BE30E948F0C29E23CE538
:1013C0004FE85DE30E94C60A20E030E048EC52E4BA
:1013D0000E948F0C23EF34E045EB5FE30E94370B54
:1013E0004B015C0180925A0190925B01A0925C01DA
:1013F000B0925D0160E08AE00E94CE0120E030E022
:1014000040EA51E4C501B4010E948A0C181624F484
:1014100061E08AE00E94CE01B601DD0C880B990BD9
:101420000E94DA0B2AE038E240EA5BE30E948F0C6C
:1014300029E23CE54FE85DE30E94C60A20E030E087
:1014400048EC52E40E948F0C23EF34E045EB5FE35D
:101450000E94370B4B015C0180925601909257011C
:10146000A0925801B092590160E08BE00E94CE0139
:1014700020E030E040EA51E4C501B4010E948A0C4A
:10148000181624F461E08BE00E94CE01B701FF0C36
:10149000880B990B0E94DA0B2AE038E240EA5BE302
:1014A0000E948F0C29E23CE54FE85DE30E94C60AEA
:1014B00020E030E048EC52E40E948F0C23EF34E04F
:1014C00045EB5FE30E94370B6B017C01C092520138
:1014D000D0925301E0925401F092550160E08CE00B
:1014E0000E94CE0120E030E040EA51E4C701B6019D
:1014F0000E948A0C181624F461E08CE00E94CE0150
:10150000B801110F880B990B0E94DA0B2AE038E220
:1015100040EA5BE30E948F0C29E23CE54FE85DE383
:101520000E94C60A20E030E048EC52E40E948F0C92
:1015300023EF34E045EB5FE30E94370B6B017C0146
:10154000C0924E01D0924F01E0925001F0925101B1
:1015500060E08DE00E94CE0120E030E040EA51E4FE
:10156000C701B6010E948A0C18160CF091CE61E0FA
:101570008DE00E94CE018CCEFB01DC0102C0059003
:101580000D9241505040D8F708955058BB27AA27D4
:101590000E94DD0A0C94500C0E94420C38F00E940C
:1015A000490C20F039F49F3F19F426F40C943F0CB9
:1015B0000EF4E095E7FB0C94390CE92F0E94610CC6
:1015C00058F3BA17620773078407950720F079F478
:1015D000A6F50C94830C0EF4E0950B2EBA2FA02DDB
:1015E0000B01B90190010C01CA01A0011124FF27D0
:1015F000591B99F0593F50F4503E68F11A16F040CB
:10160000A22F232F342F4427585FF3CF46953795C9
:101610002795A795F0405395C9F77EF41F16BA0B8E
:10162000620B730B840BBAF09150A1F0FF0FBB1F3C
:10163000661F771F881FC2F70EC0BA0F621F731F85
:10164000841F48F4879577956795B795F7959E3FE2
:1016500008F0B0CF9395880F08F09927EE0F979573
:10166000879508950E94150C08F481E008950E9462
:101670004B0B0C94500C0E94490C58F00E94420CE9
:1016800040F029F45F3F29F00C94390C51110C946F
:10169000840C0C943F0C0E94610C68F39923B1F305
:1016A000552391F3951B550BBB27AA276217730788
:1016B000840738F09F5F5F4F220F331F441FAA1F1C
:1016C000A9F335D00E2E3AF0E0E832D091505040D8
:1016D000E695001CCAF72BD0FE2F29D0660F771F86
:1016E000881FBB1F261737074807AB07B0E809F06C
:1016F000BB0B802DBF01FF2793585F4F3AF09E3FF1
:10170000510578F00C94390C0C94840C5F3FE4F391
:10171000983ED4F3869577956795B795F7959F5F33
:10172000C9F7880F911D9695879597F90895E1E07F
:10173000660F771F881FBB1F621773078407BA07DE
:1017400020F0621B730B840BBA0BEE1F88F7E09539
:1017500008950E94690C88F09F5798F0B92F992737
:10176000B751B0F0E1F0660F771F881F991F1AF08C
:10177000BA95C9F714C0B13091F00E94830CB1E062
:1017800008950C94830C672F782F8827B85F39F061
:10179000B93FCCF3869577956795B395D9F73EF425
:1017A00090958095709561957F4F8F4F9F4F0895CD
:1017B000E89409C097FB3EF49095809570956195EB
:1017C0007F4F8F4F9F4F9923A9F0F92F96E9BB27A1
:1017D0009395F695879577956795B795F111F8CF1D
:1017E000FAF4BB0F11F460FF1BC06F5F7F4F8F4F88
:1017F0009F4F16C0882311F096E911C0772321F07E
:101800009EE8872F762F05C0662371F096E8862F15
:1018100070E060E02AF09A95660F771F881FDAF76C
:10182000880F9695879597F90895990F0008550F99
:10183000AA0BE0E8FEEF16161706E807F907C0F056
:1018400012161306E407F50798F0621B730B840B5E
:10185000950B39F40A2661F0232B242B252B21F438
:1018600008950A2609F4A140A6958FEF811D811DD8
:10187000089597F99F6780E870E060E008959FEF12
:1018800080EC089500240A94161617061806090617
:10189000089500240A9412161306140605060895E6
:1018A000092E0394000C11F4882352F0BB0F40F46E
:1018B000BF2B11F460FF04C06F5F7F4F8F4F9F4FAE
:1018C000089557FD9058440F551F59F05F3F71F030
:1018D0004795880F97FB991F61F09F3F79F0879597
:1018E0000895121613061406551FF2CF4695F1DF20
:1018F00008C0161617061806991FF1CF86957105B0
:10190000610508940895E894BB2766277727CB01E3
:1019100097F908950E94150C08F48FEF08950E941E
:10192000A20C0C94500C0E94420C38F00E94490CFE
:1019300020F0952311F00C94390C0C943F0C1124D9
:101940000C94840C0E94610C70F3959FC1F3950F69
:1019500050E0551F629FF001729FBB27F00DB11D33
:10196000639FAA27F00DB11DAA1F649F6627B00DC3
:10197000A11D661F829F2227B00DA11D621F739FAC
:10198000B00DA11D621F839FA00D611D221F749FBA
:101990003327A00D611D231F849F600D211D822F01
:1019A000762F6A2F11249F5750409AF0F1F0882328
:1019B0004AF0EE0FFF1FBB1F661F771F881F915055
:1019C0005040A9F79E3F510580F00C94390C0C94BF
:1019D000840C5F3FE4F3983ED4F386957795679542
:1019E000B795F795E7959F5FC1F7FE2B880F911D7F
:1019F0009695879597F908950E94150C880B990B79
:101A0000089597FB072E16F4009407D077FD09D0B0
:101A10000E94370D07FC05D03EF4909581959F4FAD
:101A20000895709561957F4F0895A1E21A2EAA1B23
:101A3000BB1BFD010DC0AA1FBB1FEE1FFF1FA2177E
:101A4000B307E407F50720F0A21BB30BE40BF50B7B
:101A5000661F771F881F991F1A9469F76095709504
:101A6000809590959B01AC01BD01CF010895AA1B03
:101A7000BB1B51E107C0AA1FBB1FA617B70710F079
:101A8000A61BB70B881F991F5A95A9F780959095AB
:101A9000BC01CD010895EE0FFF1F0590F491E02DDC
:061AA0000994F894FFCF49
:101AA60000070507000000000036039602C3028304
:101AB60003F402D202E6020000000066049602A4C5
:101AC60003A3036E616E00696E66006F766600435F
:101AD6004830200043483120004348322000434824
:041AE60033200000A9
:00000001FF
